:020000040800F2
:2000000000F10220ED970F0859640F085B640F085D640F085F640F0861640F0800000000FA
:20002000000000000000000000000000CB9D0C0863640F08000000006D9D0C0865640F0868
:200040002D980F0831980F0835980F0839980F083D980F0841980F0875640F0865650F086B
:2000600045980F0849980F084D980F0851980F0855980F0859980F085D980F0861980F0870
:2000800065980F0869980F086D980F0871980F0875980F0879980F087D980F0881980F0850
:2000A00085980F0889980F088D980F0891980F0881640F0895980F0899980F089D980F0884
:2000C000A1980F08A5980F08A9980F08AD980F08B1980F08B5980F08B9980F08BD980F0830
:2000E000E5640F0803D00C08C1980F08C5980F08C9980F08CD980F08D1980F08D5980F08DD
:20010000D9980F08DD980F0899640F08E1980F08E5980F08E9980F08ED980F08F1980F08BF
:20012000F5980F08DB640F08F9980F08FD980F0801990F0805990F0809990F080D990F0895
:2001400011990F0815990F0819990F081D990F0821990F0825990F0829990F082D990F0827
:2001600031990F0835990F0839990F083D990F0841990F0885640F0845990F0849990F0804
:200180004D990F0851990F0855990F0859990F085D990F0861990F0865990F0869990F0807
:2001A000DD640F086D990F08E1640F08000000FF000000FF000000FF000000FF000000FF73
:2001C000000000FF000000FF000000FF000000FF000000FF000000FF000000FF000000FF27
:2001E000000000FF000000FF000000FF000000FF000000FF000000FF000000FF000000FF07
:20020000000000FF000000FF000000FF000000FF000000FF000000FF000000FF000000FFE6
:20022000000000FF000000FF000000FF000000FF000000FF000000FF000000FF000000FFC6
:20024000000000FF000000FF000000FF000000FF000000FF000000FF000000FF000000FFA6
:20026000000000FF000000FF000000FF030002FD260016E449002BB96A003E9383004D71B6
:200280009B005B53AF00673AC4007325D2007B14D2007B08D2007B00D2007B00D2007B00CC
:2002A000D2007B00D2007B08D2007B14C4007325AF00673A9B005B53890050706A003E92C3
:2002C00049002BB8260016E3030002FD000000FF000000FF000000FF000000FF000000FFD6
:2002E000000000FF000000FF000000FF000000FF000000FF000000FF000000FF000000FF06
:20030000000000FF000000FF000000FF000000FF000000FF000000FF000000FF000000FFE5
:20032000000000FF000000FF000000FF000000FF000000FF000000FF000000FF000000FFC5
:20034000000000FF000000FF000000FF000000FF000000FF000000FF000000FF000000FFA5
:20036000000000FF000000FF000000FF000000FF000000FF000000FF000000FF000000FF85
:20038000000000FF000000FF000000FF000000FF000000FF000000FF000000FF000000FF65
:2003A000000000FF000000FF000000FF000000FF000000FF000000FF000000FF000000FF45
:2003C000000000FF000000FF000000FF000000FF000000FF000000FF000000FF000000FF25
:2003E000000000FF000000FF000000FF000000FF000000FF000000FF000000FF000000FF05
:20040000000000FF000000FF000000FF000000FF000000FF000000FF000000FF000000FFE4
:20042000000000FF000000FF000000FF000000FF000000FF000000FF000000FF15000CF5AD
:2004400048002ABC78004680A7006248CD007816D2007B00D2007B00D2007B00D2007B0050
:20046000D2007B00D2007B00D2007B00D2007B00D2007B00D2007B00D2007B00D2007B0014
:20048000D2007B00D2007B00D2007B00D2007B00D2007B00D2007B00D2007B00D2007B00F4
:2004A000D2007B00D2007B00CD007814A70062477800468048002ABC15000CF4000000FF79
:2004C000000000FF000000FF000000FF000000FF000000FF000000FF000000FF000000FF24
:2004E000000000FF000000FF000000FF000000FF000000FF000000FF000000FF000000FF04
:20050000000000FF000000FF000000FF000000FF000000FF000000FF000000FF000000FFE3
:20052000000000FF000000FF000000FF000000FF000000FF000000FF000000FF000000FFC3
:20054000000000FF000000FF000000FF000000FF000000FF000000FF000000FF000000FFA3
:20056000000000FF000000FF000000FF000000FF000000FF000000FF000000FF000000FF83
:20058000000000FF000000FF000000FF000000FF000000FF000000FF000000FF000000FF63
:2005A000000000FF000000FF000000FF000000FF000000FF000000FF000000FF000000FF43
:2005C000000000FF000000FF000000FF000000FF000000FF000000FF000000FF000000FF23
:2005E000000000FF000000FF000000FF000000FF000000FF000000FF000000FF000000FF03
:20060000000000FF000000FF000000FF020001FE2B0019DF6B003F90A8006246D0007A0ADB
:20062000D2007B00D2007B00D2007B00D2007B00D2007B00D2007B00D2007B00D2007B0052
:20064000D2007B00D2007B00D2007B00D2007B00D2007B00D2007B00D2007B00D2007B0032
:20066000D2007B00D2007B00D2007B00D2007B00D2007B00D2007B00D2007B00D2007B0012
:20068000D2007B00D2007B00D2007B00D2007B00D2007B00D2007B00D0007A09A8006246E9
:2006A0006B003F902B0019DE020001FE000000FF000000FF000000FF000000FF000000FFE2
:2006C000000000FF000000FF000000FF000000FF000000FF000000FF000000FF000000FF22
:2006E000000000FF161616F3737373A4ABABAB63D6D6D645B8B8B8557B7B7B98121212F5ED
:20070000000000FF000000FF000000FF000000FF000000FF000000FF000000FF000000FFE1
:20072000000000FF000000FF000000FF000000FF000000FF000000FF000000FF000000FFC1
:20074000000000FF000000FF000000FF000000FF000000FF000000FF000000FF000000FFA1
:20076000000000FF000000FF000000FF000000FF000000FF000000FF000000FF000000FF81
:20078000000000FF000000FF000000FF000000FF000000FF000000FF000000FF000000FF61
:2007A000000000FF000000FF000000FF000000FF000000FF000000FF000000FF000000FF41
:2007C000000000FF000000FF000000FF000000FF000000FF000000FF000000FF000000FF21
:2007E000000000FF1F0012E871004291B5006A37D2007B02D2007B00D2007B00D2007B0011
:20080000D2007B00D2007B00D2007B00D2007B00D2007B00D2007B00D2007B00D2007B0070
:20082000D2007B00D2007B00D2007B00D2007B00D2007B00D2007B00D2007B00D2007B0050
:20084000D2007B00D2007B00D2007B00D2007B00D2007B00D2007B00D2007B00D2007B0030
:20086000D2007B00D2007B00D2007B00D2007B00D2007B00D2007B00D2007B00D2007B0010
:20088000D2007B00D2007B02B5006A37710042901F0012E8000000FF000000FF000000FF0D
:2008A000000000FF000000FF000000FF000000FF000000FF000000FF000000FF121212F712
:2008C00094949487F9F9F914FFFFFF00FFFFFF00FFFFFF00FFFFFF00FFFFFF00E6E6E6290A
:2008E000404040D9000000FF000000FF000000FF000000FF000000FF000000FF000000FF66
:20090000000000FF000000FF000000FF000000FF000000FF000000FF000000FF000000FFDF
:20092000000000FF000000FF000000FF000000FF000000FF000000FF000000FF000000FFBF
:20094000000000FF000000FF000000FF000000FF000000FF000000FF000000FF000000FF9F
:20096000000000FF000000FF000000FF000000FF000000FF000000FF000000FF000000FF7F
:20098000000000FF000000FF000000FF000000FF000000FF000000FF000000FF000000FF5F
:2009A000000000FF000000FF000000FF000000FF000000FF000000FF050003FD48002ABF07
:2009C000A0005E55D2007B08D2007B00D2007B00D2007B00D2007B00D2007B00D2007B00A1
:2009E000D2007B00D2007B00D2007B00D2007B00D2007B00D2007B00D2007B00D2007B008F
:200A0000D2007B00D2007B00D2007B00D2007B00D2007B00D2007B00D2007B00D2007B006E
:200A2000D2007B00D2007B00D2007B00D2007B00D2007B00D2007B00D2007B00D2007B004E
:200A4000D2007B00D2007B00D2007B00D2007B00D2007B00D2007B00D2007B00D2007B002E
:200A6000D2007B00D2007B00D2007B00D2007B00D2007B08A0005E5448002ABE050003FD66
:200A8000000000FF000000FF000000FF000000FF000000FF000000FF4E4E4EC8E4E4E42AD4
:200AA000FFFFFF00FFFFFF00FFFFFF00FFFFFF00FFFFFF00FFFFFF00FFFFFF00FFFFFF004E
:200AC000F1F1F11F262626E8000000FF000000FF000000FF000000FF000000FF000000FFD0
:200AE000000000FF000000FF000000FF000000FF000000FF000000FF000000FF000000FFFE
:200B0000000000FF000000FF000000FF000000FF000000FF000000FF000000FF000000FFDD
:200B2000000000FF000000FF000000FF000000FF000000FF000000FF000000FF000000FFBD
:200B4000000000FF000000FF000000FF000000FF000000FF000000FF000000FF000000FF9D
:200B6000000000FF000000FF000000FF000000FF000000FF000000FF000000FF000000FF7D
:200B8000000000FF000000FF000000FF000000FF0D0007F9600038A5B8006C31D2007B006D
:200BA000D2007B00D2007B00D2007B00D2007B00D2007B00D2007B00D2007B00D2007B00CD
:200BC000D2007B00D2007B00D2007B00D2007B00D2007B00D2007B00D2007B00D2007B00AD
:200BE000D2007B00D2007B00D2007B00D2007B00D2007B00D2007B00D2007B00D2007B008D
:200C0000D2007B00D2007B00D2007B00D2007B00D2007B00D2007B00D2007B00D2007B006C
:200C2000D2007B00D2007B00D2007B00D2007B00D2007B00D2007B00D2007B00D2007B004C
:200C4000D2007B00D2007B00D2007B00D2007B00D2007B00D2007B00D2007B00B8006C3025
:200C6000600038A40D0007F9000000FF000000FF020202FE82828294FDFDFD08FFFFFF0013
:200C8000FFFFFF00FFFFFF00FFFFFF00FFFFFF00FFFFFF00FFFFFF00FFFFFF00FFFFFF006C
:200CA000FFFFFF00C1C1C157010101FF000000FF000000FF000000FF000000FF000000FFA0
:200CC000000000FF000000FF000000FF000000FF000000FF000000FF000000FF000000FF1C
:200CE000000000FF000000FF000000FF000000FF000000FF000000FF000000FF000000FFFC
:200D0000000000FF000000FF000000FF000000FF000000FF000000FF000000FF000000FFDB
:200D2000000000FF000000FF000000FF000000FF000000FF000000FF000000FF000000FFBB
:200D4000000000FF000000FF000000FF000000FF000000FF000000FF000000FF000000FF9B
:200D6000000000FF000000FF0D0007FA66003BA1C2007125D2007B00D2007B00D2007B00E6
:200D8000D2007B00D2007B00D2007B00D2007B00D2007B00D2007B00D2007B00D2007B00EB
:200DA000D2007B00D2007B00D2007B00D2007B00D2007B00D2007B00D2007B00D2007B00CB
:200DC000D2007B00D2007B00D2007B00D2007B00D2007B00D2007B00D2007B00D2007B00AB
:140DE000D2007B00D2007B00D2007B00D2007B00D2007B007E
:00000001FF
